{
  "contractName": "ProxyCaller",
  "abi": [
    {
      "inputs": [
        {
          "internalType": "address",
          "name": "_target",
          "type": "address"
        }
      ],
      "stateMutability": "nonpayable",
      "type": "constructor"
    },
    {
      "anonymous": false,
      "inputs": [
        {
          "indexed": false,
          "internalType": "bytes",
          "name": "data",
          "type": "bytes"
        }
      ],
      "name": "CallSuccess",
      "type": "event"
    },
    {
      "inputs": [],
      "name": "target",
      "outputs": [
        {
          "internalType": "address",
          "name": "",
          "type": "address"
        }
      ],
      "stateMutability": "view",
      "type": "function"
    },
    {
      "inputs": [
        {
          "internalType": "address",
          "name": "_target",
          "type": "address"
        }
      ],
      "name": "setTarget",
      "outputs": [],
      "stateMutability": "nonpayable",
      "type": "function"
    },
    {
      "inputs": [],
      "name": "proxyJoinGame",
      "outputs": [],
      "stateMutability": "nonpayable",
      "type": "function"
    },
    {
      "inputs": [
        {
          "internalType": "bytes32",
          "name": "moveHash",
          "type": "bytes32"
        }
      ],
      "name": "proxyCommitMove",
      "outputs": [],
      "stateMutability": "nonpayable",
      "type": "function"
    },
    {
      "inputs": [
        {
          "internalType": "uint256",
          "name": "move",
          "type": "uint256"
        },
        {
          "internalType": "uint256",
          "name": "nonce",
          "type": "uint256"
        }
      ],
      "name": "proxyRevealMove",
      "outputs": [],
      "stateMutability": "nonpayable",
      "type": "function"
    },
    {
      "inputs": [],
      "name": "getGameState",
      "outputs": [
        {
          "internalType": "enum ZeroKnowledgeRockPaperScissors.GameState",
          "name": "",
          "type": "uint8"
        }
      ],
      "stateMutability": "view",
      "type": "function"
    },
    {
      "inputs": [],
      "name": "getPlayerMoves",
      "outputs": [
        {
          "internalType": "uint256",
          "name": "",
          "type": "uint256"
        },
        {
          "internalType": "uint256",
          "name": "",
          "type": "uint256"
        }
      ],
      "stateMutability": "view",
      "type": "function"
    }
  ],
  "bytecode": "0x608060405234801562000010575f80fd5b50604051620010de380380620010de8339818101604052810190620000369190620000e1565b805f806101000a81548173ffffffffffffffffffffffffffffffffffffffff021916908373ffffffffffffffffffffffffffffffffffffffff1602179055505062000111565b5f80fd5b5f73ffffffffffffffffffffffffffffffffffffffff82169050919050565b5f620000ab8262000080565b9050919050565b620000bd816200009f565b8114620000c8575f80fd5b50565b5f81519050620000db81620000b2565b92915050565b5f60208284031215620000f957620000f86200007c565b5b5f6200010884828501620000cb565b91505092915050565b610fbf806200011f5f395ff3fe608060405234801561000f575f80fd5b506004361061007b575f3560e01c806361f3df521161005957806361f3df52146100d6578063776d1a01146100e0578063b7d0628b146100fc578063d4b839921461011a5761007b565b8063113f188a1461007f578063160bdf771461009b5780633be50a11146100ba575b5f80fd5b61009960048036038101906100949190610961565b610138565b005b6100a36102cc565b6040516100b19291906109a4565b60405180910390f35b6100d460048036038101906100cf91906109f5565b610436565b005b6100de6105cd565b005b6100fa60048036038101906100f59190610a8d565b61075e565b005b6101046107a0565b6040516101119190610b2b565b60405180910390f35b610122610907565b60405161012f9190610b53565b60405180910390f35b5f805f8054906101000a900473ffffffffffffffffffffffffffffffffffffffff1673ffffffffffffffffffffffffffffffffffffffff163384604051602401610183929190610b7b565b6040516020818303038152906040527f45a753a4000000000000000000000000000000000000000000000000000000007bffffffffffffffffffffffffffffffffffffffffffffffffffffffff19166020820180517bffffffffffffffffffffffffffffffffffffffffffffffffffffffff838183161783525050505060405161020d9190610c0e565b5f604051808303815f865af19150503d805f8114610246576040519150601f19603f3d011682016040523d82523d5f602084013e61024b565b606091505b509150915081610290576040517f08c379a000000000000000000000000000000000000000000000000000000000815260040161028790610c7e565b60405180910390fd5b7f4feab2359ad6b5a3eb3af43d9ecf52933bec2867ed08dcfb7f088a6e2e166ad4816040516102bf9190610cf4565b60405180910390a1505050565b5f805f805f8054906101000a900473ffffffffffffffffffffffffffffffffffffffff1673ffffffffffffffffffffffffffffffffffffffff166040516024016040516020818303038152906040527f160bdf77000000000000000000000000000000000000000000000000000000007bffffffffffffffffffffffffffffffffffffffffffffffffffffffff19166020820180517bffffffffffffffffffffffffffffffffffffffffffffffffffffffff83818316178352505050506040516103969190610c0e565b5f60405180830381855afa9150503d805f81146103ce576040519150601f19603f3d011682016040523d82523d5f602084013e6103d3565b606091505b509150915081610418576040517f08c379a000000000000000000000000000000000000000000000000000000000815260040161040f90610d5e565b60405180910390fd5b8080602001905181019061042c9190610d90565b9350935050509091565b5f805f8054906101000a900473ffffffffffffffffffffffffffffffffffffffff1673ffffffffffffffffffffffffffffffffffffffff1633858560405160240161048393929190610dce565b6040516020818303038152906040527f3f42a7e5000000000000000000000000000000000000000000000000000000007bffffffffffffffffffffffffffffffffffffffffffffffffffffffff19166020820180517bffffffffffffffffffffffffffffffffffffffffffffffffffffffff838183161783525050505060405161050d9190610c0e565b5f604051808303815f865af19150503d805f8114610546576040519150601f19603f3d011682016040523d82523d5f602084013e61054b565b606091505b509150915081610590576040517f08c379a000000000000000000000000000000000000000000000000000000000815260040161058790610e4d565b60405180910390fd5b7f4feab2359ad6b5a3eb3af43d9ecf52933bec2867ed08dcfb7f088a6e2e166ad4816040516105bf9190610cf4565b60405180910390a150505050565b5f805f8054906101000a900473ffffffffffffffffffffffffffffffffffffffff1673ffffffffffffffffffffffffffffffffffffffff16336040516024016106169190610b53565b6040516020818303038152906040527f2389a290000000000000000000000000000000000000000000000000000000007bffffffffffffffffffffffffffffffffffffffffffffffffffffffff19166020820180517bffffffffffffffffffffffffffffffffffffffffffffffffffffffff83818316178352505050506040516106a09190610c0e565b5f604051808303815f865af19150503d805f81146106d9576040519150601f19603f3d011682016040523d82523d5f602084013e6106de565b606091505b509150915081610723576040517f08c379a000000000000000000000000000000000000000000000000000000000815260040161071a90610eb5565b60405180910390fd5b7f4feab2359ad6b5a3eb3af43d9ecf52933bec2867ed08dcfb7f088a6e2e166ad4816040516107529190610cf4565b60405180910390a15050565b805f806101000a81548173ffffffffffffffffffffffffffffffffffffffff021916908373ffffffffffffffffffffffffffffffffffffffff16021790555050565b5f805f805f9054906101000a900473ffffffffffffffffffffffffffffffffffffffff1673ffffffffffffffffffffffffffffffffffffffff166040516024016040516020818303038152906040527fb7d0628b000000000000000000000000000000000000000000000000000000007bffffffffffffffffffffffffffffffffffffffffffffffffffffffff19166020820180517bffffffffffffffffffffffffffffffffffffffffffffffffffffffff838183161783525050505060405161086a9190610c0e565b5f60405180830381855afa9150503d805f81146108a2576040519150601f19603f3d011682016040523d82523d5f602084013e6108a7565b606091505b5091509150816108ec576040517f08c379a00000000000000000000000000000000000000000000000000000000081526004016108e390610f1d565b60405180910390fd5b808060200190518101906109009190610f5e565b9250505090565b5f8054906101000a900473ffffffffffffffffffffffffffffffffffffffff1681565b5f80fd5b5f819050919050565b6109408161092e565b811461094a575f80fd5b50565b5f8135905061095b81610937565b92915050565b5f602082840312156109765761097561092a565b5b5f6109838482850161094d565b91505092915050565b5f819050919050565b61099e8161098c565b82525050565b5f6040820190506109b75f830185610995565b6109c46020830184610995565b9392505050565b6109d48161098c565b81146109de575f80fd5b50565b5f813590506109ef816109cb565b92915050565b5f8060408385031215610a0b57610a0a61092a565b5b5f610a18858286016109e1565b9250506020610a29858286016109e1565b9150509250929050565b5f73ffffffffffffffffffffffffffffffffffffffff82169050919050565b5f610a5c82610a33565b9050919050565b610a6c81610a52565b8114610a76575f80fd5b50565b5f81359050610a8781610a63565b92915050565b5f60208284031215610aa257610aa161092a565b5b5f610aaf84828501610a79565b91505092915050565b7f4e487b71000000000000000000000000000000000000000000000000000000005f52602160045260245ffd5b60048110610af657610af5610ab8565b5b50565b5f819050610b0682610ae5565b919050565b5f610b1582610af9565b9050919050565b610b2581610b0b565b82525050565b5f602082019050610b3e5f830184610b1c565b92915050565b610b4d81610a52565b82525050565b5f602082019050610b665f830184610b44565b92915050565b610b758161092e565b82525050565b5f604082019050610b8e5f830185610b44565b610b9b6020830184610b6c565b9392505050565b5f81519050919050565b5f81905092915050565b5f5b83811015610bd3578082015181840152602081019050610bb8565b5f8484015250505050565b5f610be882610ba2565b610bf28185610bac565b9350610c02818560208601610bb6565b80840191505092915050565b5f610c198284610bde565b915081905092915050565b5f82825260208201905092915050565b7f43616c6c20746f20636f6d6d69744d6f7665206661696c6564000000000000005f82015250565b5f610c68601983610c24565b9150610c7382610c34565b602082019050919050565b5f6020820190508181035f830152610c9581610c5c565b9050919050565b5f82825260208201905092915050565b5f601f19601f8301169050919050565b5f610cc682610ba2565b610cd08185610c9c565b9350610ce0818560208601610bb6565b610ce981610cac565b840191505092915050565b5f6020820190508181035f830152610d0c8184610cbc565b905092915050565b7f43616c6c20746f20676574506c617965724d6f766573206661696c65640000005f82015250565b5f610d48601d83610c24565b9150610d5382610d14565b602082019050919050565b5f6020820190508181035f830152610d7581610d3c565b9050919050565b5f81519050610d8a816109cb565b92915050565b5f8060408385031215610da657610da561092a565b5b5f610db385828601610d7c565b9250506020610dc485828601610d7c565b9150509250929050565b5f606082019050610de15f830186610b44565b610dee6020830185610995565b610dfb6040830184610995565b949350505050565b7f43616c6c20746f2072657665616c4d6f7665206661696c6564000000000000005f82015250565b5f610e37601983610c24565b9150610e4282610e03565b602082019050919050565b5f6020820190508181035f830152610e6481610e2b565b9050919050565b7f43616c6c20746f206a6f696e47616d65206661696c65640000000000000000005f82015250565b5f610e9f601783610c24565b9150610eaa82610e6b565b602082019050919050565b5f6020820190508181035f830152610ecc81610e93565b9050919050565b7f43616c6c20746f2067657447616d655374617465206661696c656400000000005f82015250565b5f610f07601b83610c24565b9150610f1282610ed3565b602082019050919050565b5f6020820190508181035f830152610f3481610efb565b9050919050565b60048110610f47575f80fd5b50565b5f81519050610f5881610f3b565b92915050565b5f60208284031215610f7357610f7261092a565b5b5f610f8084828501610f4a565b9150509291505056fea26469706673582212206666d15f0025217563b14912c74b2dd91f3151ca5eb17237cb1e4786299b625264736f6c63430008150033",
  "immutableReferences": {},
  "source": "// SPDX-License-Identifier: MIT\npragma solidity ^0.8.0;\n\nimport \"./ZeroKnowledgeRockPaperScissors.sol\";\n\ncontract ProxyCaller {\n    address public target;\n\n    event CallSuccess(bytes data);\n\n    constructor(address _target) {\n        target = _target;\n    }\n\n    function setTarget(address _target) external {\n        target = _target;\n    }\n\n    function proxyJoinGame() external {\n        (bool success, bytes memory data) = target.call(\n            abi.encodeWithSignature(\"joinGame(address)\", msg.sender)\n        );\n        require(success, \"Call to joinGame failed\");\n        emit CallSuccess(data);\n    }\n\n    function proxyCommitMove(bytes32 moveHash) external {\n        (bool success, bytes memory data) = target.call(\n            abi.encodeWithSignature(\"commitMove(address,bytes32)\", msg.sender, moveHash)\n        );\n        require(success, \"Call to commitMove failed\");\n        emit CallSuccess(data);\n    }\n\n    function proxyRevealMove(uint move, uint nonce) external {\n        (bool success, bytes memory data) = target.call(\n            abi.encodeWithSignature(\"revealMove(address,uint256,uint256)\", msg.sender, move, nonce)\n        );\n        require(success, \"Call to revealMove failed\");\n        emit CallSuccess(data);\n    }\n\n    function getGameState() external view returns (ZeroKnowledgeRockPaperScissors.GameState) {\n        (bool success, bytes memory data) = target.staticcall(\n            abi.encodeWithSignature(\"getGameState()\")\n        );\n        require(success, \"Call to getGameState failed\");\n        return abi.decode(data, (ZeroKnowledgeRockPaperScissors.GameState));\n    }\n\n    function getPlayerMoves() external view returns (uint, uint) {\n        (bool success, bytes memory data) = target.staticcall(\n            abi.encodeWithSignature(\"getPlayerMoves()\")\n        );\n        require(success, \"Call to getPlayerMoves failed\");\n        return abi.decode(data, (uint, uint));\n    }\n}\n",
  "sourcePath": "/Users/vladgud/institute/ZeroKnowledgeRPS/contracts/ProxyCaller.sol",
  "compiler": {
    "name": "solc",
    "version": "0.8.21+commit.d9974bed.Emscripten.clang"
  },
  "schemaVersion": "3.4.16",
  "updatedAt": "2024-12-22T13:53:02.697Z",
  "devdoc": {
    "kind": "dev",
    "methods": {},
    "version": 1
  },
  "userdoc": {
    "kind": "user",
    "methods": {},
    "version": 1
  }
}