{
  "contractName": "ZeroKnowledgeRockPaperScissors",
  "abi": [
    {
      "inputs": [],
      "stateMutability": "nonpayable",
      "type": "constructor"
    },
    {
      "anonymous": false,
      "inputs": [
        {
          "indexed": true,
          "internalType": "address",
          "name": "player1",
          "type": "address"
        }
      ],
      "name": "GameCreated",
      "type": "event"
    },
    {
      "anonymous": false,
      "inputs": [
        {
          "indexed": false,
          "internalType": "address",
          "name": "winner",
          "type": "address"
        }
      ],
      "name": "GameFinished",
      "type": "event"
    },
    {
      "anonymous": false,
      "inputs": [
        {
          "indexed": true,
          "internalType": "address",
          "name": "player",
          "type": "address"
        },
        {
          "indexed": false,
          "internalType": "bytes32",
          "name": "moveHash",
          "type": "bytes32"
        }
      ],
      "name": "MoveCommitted",
      "type": "event"
    },
    {
      "anonymous": false,
      "inputs": [
        {
          "indexed": false,
          "internalType": "bytes32",
          "name": "moveHash",
          "type": "bytes32"
        }
      ],
      "name": "MoveHashLog",
      "type": "event"
    },
    {
      "anonymous": false,
      "inputs": [
        {
          "indexed": true,
          "internalType": "address",
          "name": "player",
          "type": "address"
        },
        {
          "indexed": false,
          "internalType": "uint256",
          "name": "move",
          "type": "uint256"
        }
      ],
      "name": "MoveRevealed",
      "type": "event"
    },
    {
      "anonymous": false,
      "inputs": [
        {
          "indexed": true,
          "internalType": "address",
          "name": "player2",
          "type": "address"
        }
      ],
      "name": "PlayerJoined",
      "type": "event"
    },
    {
      "inputs": [],
      "name": "gameState",
      "outputs": [
        {
          "internalType": "enum ZeroKnowledgeRockPaperScissors.GameState",
          "name": "",
          "type": "uint8"
        }
      ],
      "stateMutability": "view",
      "type": "function"
    },
    {
      "inputs": [],
      "name": "owner",
      "outputs": [
        {
          "internalType": "address",
          "name": "",
          "type": "address"
        }
      ],
      "stateMutability": "view",
      "type": "function"
    },
    {
      "inputs": [],
      "name": "player1",
      "outputs": [
        {
          "internalType": "address",
          "name": "",
          "type": "address"
        }
      ],
      "stateMutability": "view",
      "type": "function"
    },
    {
      "inputs": [],
      "name": "player1Move",
      "outputs": [
        {
          "internalType": "uint256",
          "name": "",
          "type": "uint256"
        }
      ],
      "stateMutability": "view",
      "type": "function"
    },
    {
      "inputs": [],
      "name": "player1MoveHash",
      "outputs": [
        {
          "internalType": "bytes32",
          "name": "",
          "type": "bytes32"
        }
      ],
      "stateMutability": "view",
      "type": "function"
    },
    {
      "inputs": [],
      "name": "player2",
      "outputs": [
        {
          "internalType": "address",
          "name": "",
          "type": "address"
        }
      ],
      "stateMutability": "view",
      "type": "function"
    },
    {
      "inputs": [],
      "name": "player2Move",
      "outputs": [
        {
          "internalType": "uint256",
          "name": "",
          "type": "uint256"
        }
      ],
      "stateMutability": "view",
      "type": "function"
    },
    {
      "inputs": [],
      "name": "player2MoveHash",
      "outputs": [
        {
          "internalType": "bytes32",
          "name": "",
          "type": "bytes32"
        }
      ],
      "stateMutability": "view",
      "type": "function"
    },
    {
      "inputs": [
        {
          "internalType": "address",
          "name": "sender",
          "type": "address"
        }
      ],
      "name": "joinGame",
      "outputs": [],
      "stateMutability": "nonpayable",
      "type": "function"
    },
    {
      "inputs": [
        {
          "internalType": "address",
          "name": "sender",
          "type": "address"
        },
        {
          "internalType": "bytes32",
          "name": "moveHash",
          "type": "bytes32"
        }
      ],
      "name": "commitMove",
      "outputs": [],
      "stateMutability": "nonpayable",
      "type": "function"
    },
    {
      "inputs": [
        {
          "internalType": "address",
          "name": "sender",
          "type": "address"
        },
        {
          "internalType": "uint256",
          "name": "move",
          "type": "uint256"
        },
        {
          "internalType": "uint256",
          "name": "nonce",
          "type": "uint256"
        }
      ],
      "name": "revealMove",
      "outputs": [],
      "stateMutability": "nonpayable",
      "type": "function"
    },
    {
      "inputs": [],
      "name": "getGameState",
      "outputs": [
        {
          "internalType": "enum ZeroKnowledgeRockPaperScissors.GameState",
          "name": "",
          "type": "uint8"
        }
      ],
      "stateMutability": "view",
      "type": "function"
    },
    {
      "inputs": [],
      "name": "getPlayerMoves",
      "outputs": [
        {
          "internalType": "uint256",
          "name": "",
          "type": "uint256"
        },
        {
          "internalType": "uint256",
          "name": "",
          "type": "uint256"
        }
      ],
      "stateMutability": "view",
      "type": "function"
    }
  ],
  "bytecode": "0x608060405234801561000f575f80fd5b50335f60016101000a81548173ffffffffffffffffffffffffffffffffffffffff021916908373ffffffffffffffffffffffffffffffffffffffff1602179055505f805f6101000a81548160ff02191690836003811115610073576100726100e1565b5b02179055505f60019054906101000a900473ffffffffffffffffffffffffffffffffffffffff1673ffffffffffffffffffffffffffffffffffffffff167f4f0d1d413a983b9df8ab6ab954635b186a1e9a09ee6dc1b43263ddbf4841226760405160405180910390a261010e565b7f4e487b71000000000000000000000000000000000000000000000000000000005f52602160045260245ffd5b6113f68061011b5f395ff3fe608060405234801561000f575f80fd5b50600436106100cd575f3560e01c80637685ef8e1161008a578063b7d0628b11610064578063b7d0628b146101da578063d1f9c24d146101f8578063d30895e414610216578063d5535aa014610234576100cd565b80637685ef8e146101805780638690fd711461019e5780638da5cb5b146101bc576100cd565b8063160bdf77146100d15780632389a290146100f05780633f42a7e51461010c57806345a753a4146101285780634e5055061461014457806359a5f12d14610162575b5f80fd5b6100d9610252565b6040516100e7929190610e81565b60405180910390f35b61010a60048036038101906101059190610f06565b6102d7565b005b61012660048036038101906101219190610f5b565b6106af565b005b610142600480360381019061013d9190610fde565b610a57565b005b61014c610d0a565b604051610159919061102b565b60405180910390f35b61016a610d10565b6040516101779190611053565b60405180910390f35b610188610d35565b604051610195919061106c565b60405180910390f35b6101a6610d3b565b6040516101b3919061106c565b60405180910390f35b6101c4610d41565b6040516101d19190611053565b60405180910390f35b6101e2610d66565b6040516101ef91906110f8565b60405180910390f35b610200610d7a565b60405161020d91906110f8565b60405180910390f35b61021e610d8a565b60405161022b9190611053565b60405180910390f35b61023c610daf565b604051610249919061102b565b60405180910390f35b5f80600380600381111561026957610268611085565b5b5f8054906101000a900460ff16600381111561028857610287611085565b5b146102c8576040517f08c379a00000000000000000000000000000000000000000000000000000000081526004016102bf9061116b565b60405180910390fd5b60055460065492509250509091565b5f8060038111156102eb576102ea611085565b5b5f8054906101000a900460ff16600381111561030a57610309611085565b5b1461034a576040517f08c379a00000000000000000000000000000000000000000000000000000000081526004016103419061116b565b60405180910390fd5b5f73ffffffffffffffffffffffffffffffffffffffff1660015f9054906101000a900473ffffffffffffffffffffffffffffffffffffffff1673ffffffffffffffffffffffffffffffffffffffff1614806103f157505f73ffffffffffffffffffffffffffffffffffffffff1660025f9054906101000a900473ffffffffffffffffffffffffffffffffffffffff1673ffffffffffffffffffffffffffffffffffffffff16145b610430576040517f08c379a0000000000000000000000000000000000000000000000000000000008152600401610427906111d3565b60405180910390fd5b5f73ffffffffffffffffffffffffffffffffffffffff1660015f9054906101000a900473ffffffffffffffffffffffffffffffffffffffff1673ffffffffffffffffffffffffffffffffffffffff160361052d578160015f6101000a81548173ffffffffffffffffffffffffffffffffffffffff021916908373ffffffffffffffffffffffffffffffffffffffff16021790555060015f9054906101000a900473ffffffffffffffffffffffffffffffffffffffff1673ffffffffffffffffffffffffffffffffffffffff167f31e760aa525306aba638a784082a013b6a1cc0a9a1789f3f22281c0453b10b1f60405160405180910390a26105d2565b8160025f6101000a81548173ffffffffffffffffffffffffffffffffffffffff021916908373ffffffffffffffffffffffffffffffffffffffff16021790555060025f9054906101000a900473ffffffffffffffffffffffffffffffffffffffff1673ffffffffffffffffffffffffffffffffffffffff167f31e760aa525306aba638a784082a013b6a1cc0a9a1789f3f22281c0453b10b1f60405160405180910390a25b5f73ffffffffffffffffffffffffffffffffffffffff1660015f9054906101000a900473ffffffffffffffffffffffffffffffffffffffff1673ffffffffffffffffffffffffffffffffffffffff161415801561067c57505f73ffffffffffffffffffffffffffffffffffffffff1660025f9054906101000a900473ffffffffffffffffffffffffffffffffffffffff1673ffffffffffffffffffffffffffffffffffffffff1614155b156106ab5760015f806101000a81548160ff021916908360038111156106a5576106a4611085565b5b02179055505b5050565b8260015f9054906101000a900473ffffffffffffffffffffffffffffffffffffffff1673ffffffffffffffffffffffffffffffffffffffff168173ffffffffffffffffffffffffffffffffffffffff161480610757575060025f9054906101000a900473ffffffffffffffffffffffffffffffffffffffff1673ffffffffffffffffffffffffffffffffffffffff168173ffffffffffffffffffffffffffffffffffffffff16145b610796576040517f08c379a000000000000000000000000000000000000000000000000000000000815260040161078d9061123b565b60405180910390fd5b60028060038111156107ab576107aa611085565b5b5f8054906101000a900460ff1660038111156107ca576107c9611085565b5b1461080a576040517f08c379a00000000000000000000000000000000000000000000000000000000081526004016108019061116b565b60405180910390fd5b5f848460405160200161081e929190611279565b60405160208183030381529060405280519060200120905060015f9054906101000a900473ffffffffffffffffffffffffffffffffffffffff1673ffffffffffffffffffffffffffffffffffffffff168673ffffffffffffffffffffffffffffffffffffffff16036108da5780600354146108ce576040517f08c379a00000000000000000000000000000000000000000000000000000000081526004016108c590611314565b60405180910390fd5b8460058190555061097b565b60025f9054906101000a900473ffffffffffffffffffffffffffffffffffffffff1673ffffffffffffffffffffffffffffffffffffffff168673ffffffffffffffffffffffffffffffffffffffff160361097a578060045414610972576040517f08c379a0000000000000000000000000000000000000000000000000000000008152600401610969906113a2565b60405180910390fd5b846006819055505b5b5f6005541415801561098f57505f60065414155b15610a01575f61099d610db5565b905060035f806101000a81548160ff021916908360038111156109c3576109c2611085565b5b02179055507f1728dd43546edd06fabfe796e5b641a151aa90998bfd1b1ec0ae98c6e7708459816040516109f79190611053565b60405180910390a1505b8573ffffffffffffffffffffffffffffffffffffffff167ff7bddf1d0b83b2c5abf9e1570cc4f5e462865216c066867b59ed1d05a140fc2586604051610a47919061106c565b60405180910390a2505050505050565b8160015f9054906101000a900473ffffffffffffffffffffffffffffffffffffffff1673ffffffffffffffffffffffffffffffffffffffff168173ffffffffffffffffffffffffffffffffffffffff161480610aff575060025f9054906101000a900473ffffffffffffffffffffffffffffffffffffffff1673ffffffffffffffffffffffffffffffffffffffff168173ffffffffffffffffffffffffffffffffffffffff16145b610b3e576040517f08c379a0000000000000000000000000000000000000000000000000000000008152600401610b359061123b565b60405180910390fd5b6001806003811115610b5357610b52611085565b5b5f8054906101000a900460ff166003811115610b7257610b71611085565b5b14610bb2576040517f08c379a0000000000000000000000000000000000000000000000000000000008152600401610ba99061116b565b60405180910390fd5b60015f9054906101000a900473ffffffffffffffffffffffffffffffffffffffff1673ffffffffffffffffffffffffffffffffffffffff168473ffffffffffffffffffffffffffffffffffffffff1603610c125782600381905550610c6f565b60025f9054906101000a900473ffffffffffffffffffffffffffffffffffffffff1673ffffffffffffffffffffffffffffffffffffffff168473ffffffffffffffffffffffffffffffffffffffff1603610c6e57826004819055505b5b5f801b60035414158015610c8757505f801b60045414155b15610cb65760025f806101000a81548160ff02191690836003811115610cb057610caf611085565b5b02179055505b8373ffffffffffffffffffffffffffffffffffffffff167fedea4d79ab2145d46d1e1550cc5b7758ab11733274d9f37788538da4701c0ac884604051610cfc919061102b565b60405180910390a250505050565b60035481565b60025f9054906101000a900473ffffffffffffffffffffffffffffffffffffffff1681565b60065481565b60055481565b5f60019054906101000a900473ffffffffffffffffffffffffffffffffffffffff1681565b5f805f9054906101000a900460ff16905090565b5f8054906101000a900460ff1681565b60015f9054906101000a900473ffffffffffffffffffffffffffffffffffffffff1681565b60045481565b5f60065460055403610dc9575f9050610e66565b6001600554148015610ddd57506003600654145b80610df857506002600554148015610df757506001600654145b5b80610e1357506003600554148015610e1257506002600654145b5b15610e415760015f9054906101000a900473ffffffffffffffffffffffffffffffffffffffff169050610e66565b60025f9054906101000a900473ffffffffffffffffffffffffffffffffffffffff1690505b90565b5f819050919050565b610e7b81610e69565b82525050565b5f604082019050610e945f830185610e72565b610ea16020830184610e72565b9392505050565b5f80fd5b5f73ffffffffffffffffffffffffffffffffffffffff82169050919050565b5f610ed582610eac565b9050919050565b610ee581610ecb565b8114610eef575f80fd5b50565b5f81359050610f0081610edc565b92915050565b5f60208284031215610f1b57610f1a610ea8565b5b5f610f2884828501610ef2565b91505092915050565b610f3a81610e69565b8114610f44575f80fd5b50565b5f81359050610f5581610f31565b92915050565b5f805f60608486031215610f7257610f71610ea8565b5b5f610f7f86828701610ef2565b9350506020610f9086828701610f47565b9250506040610fa186828701610f47565b9150509250925092565b5f819050919050565b610fbd81610fab565b8114610fc7575f80fd5b50565b5f81359050610fd881610fb4565b92915050565b5f8060408385031215610ff457610ff3610ea8565b5b5f61100185828601610ef2565b925050602061101285828601610fca565b9150509250929050565b61102581610fab565b82525050565b5f60208201905061103e5f83018461101c565b92915050565b61104d81610ecb565b82525050565b5f6020820190506110665f830184611044565b92915050565b5f60208201905061107f5f830184610e72565b92915050565b7f4e487b71000000000000000000000000000000000000000000000000000000005f52602160045260245ffd5b600481106110c3576110c2611085565b5b50565b5f8190506110d3826110b2565b919050565b5f6110e2826110c6565b9050919050565b6110f2816110d8565b82525050565b5f60208201905061110b5f8301846110e9565b92915050565b5f82825260208201905092915050565b7f496e76616c69642067616d6520737461746500000000000000000000000000005f82015250565b5f611155601283611111565b915061116082611121565b602082019050919050565b5f6020820190508181035f83015261118281611149565b9050919050565b7f416c6c207573657273206861766520616c7265616479206a6f696e65640000005f82015250565b5f6111bd601d83611111565b91506111c882611189565b602082019050919050565b5f6020820190508181035f8301526111ea816111b1565b9050919050565b7f4e6f74206120706c6179657200000000000000000000000000000000000000005f82015250565b5f611225600c83611111565b9150611230826111f1565b602082019050919050565b5f6020820190508181035f83015261125281611219565b9050919050565b5f819050919050565b61127361126e82610e69565b611259565b82525050565b5f6112848285611262565b6020820191506112948284611262565b6020820191508190509392505050565b7f496e76616c6964206d6f7665206f72206e6f6e636520666f7220706c617965725f8201527f2031000000000000000000000000000000000000000000000000000000000000602082015250565b5f6112fe602283611111565b9150611309826112a4565b604082019050919050565b5f6020820190508181035f83015261132b816112f2565b9050919050565b7f496e76616c6964206d6f7665206f72206e6f6e636520666f7220706c617965725f8201527f2032000000000000000000000000000000000000000000000000000000000000602082015250565b5f61138c602283611111565b915061139782611332565b604082019050919050565b5f6020820190508181035f8301526113b981611380565b905091905056fea2646970667358221220753bfda0a4837bfb336a61b819c964121fe295175e570e94a9f4142f9e65596b64736f6c63430008150033",
  "immutableReferences": {},
  "source": "// SPDX-License-Identifier: MIT\npragma solidity ^0.8.0;\n\ncontract ZeroKnowledgeRockPaperScissors {\n    enum GameState { Created, Joined, Revealed, Finished }\n    GameState public gameState;\n\n    address public owner;\n    address public player1;\n    address public player2;\n\n    bytes32 public player1MoveHash; // Hashed move of player 1\n    bytes32 public player2MoveHash; // Hashed move of player 2\n\n    uint public player1Move; // Revealed move of player 1\n    uint public player2Move; // Revealed move of player 2\n\n    event MoveHashLog(bytes32 moveHash);\n    event GameCreated(address indexed player1);\n    event PlayerJoined(address indexed player2);\n    event MoveCommitted(address indexed player, bytes32 moveHash);\n    event MoveRevealed(address indexed player, uint move);\n    event GameFinished(address winner);\n\n    modifier onlyPlayers(address sender) {\n        require(sender == player1 || sender == player2, \"Not a player\");\n        _;\n    }\n\n    modifier inState(GameState expectedState) {\n        require(gameState == expectedState, \"Invalid game state\");\n        _;\n    }\n\n    constructor() {\n        owner = msg.sender;\n        gameState = GameState.Created;\n        emit GameCreated(owner);\n    }\n\n    function joinGame(address sender) external inState(GameState.Created) {\n        require(player1 == address(0) || player2 == address(0), \"All users have already joined\");\n        \n        if (player1 == address(0)) {\n            player1 = sender;\n            emit PlayerJoined(player1);\n        } else {\n            player2 = sender;\n            emit PlayerJoined(player2);\n        }\n\n        if (player1 != address(0) && player2 != address(0)) {\n            gameState = GameState.Joined;\n        }\n    }\n\n    function commitMove(address sender, bytes32 moveHash) external onlyPlayers(sender) inState(GameState.Joined) {\n        if (sender == player1) {\n            player1MoveHash = moveHash;\n        } else if (sender == player2) {\n            player2MoveHash = moveHash;\n        }\n\n        if (player1MoveHash != bytes32(0) && player2MoveHash != bytes32(0)) {\n            gameState = GameState.Revealed;\n        }\n\n        emit MoveCommitted(sender, moveHash);\n    }\n\n    function revealMove(address sender, uint move, uint nonce) external onlyPlayers(sender) inState(GameState.Revealed) {\n        bytes32 moveHash = keccak256(abi.encodePacked(move, nonce));\n        \n        if (sender == player1) {\n            require(player1MoveHash == moveHash, \"Invalid move or nonce for player 1\");\n            player1Move = move;\n        } else if (sender == player2) {\n            require(player2MoveHash == moveHash, \"Invalid move or nonce for player 2\");\n            player2Move = move;\n        }\n\n        if (player1Move != 0 && player2Move != 0) {\n            address winner = determineWinner();\n            gameState = GameState.Finished;\n            emit GameFinished(winner);\n        }\n\n        emit MoveRevealed(sender, move);\n    }\n\n    function determineWinner() internal view returns (address) {\n        // Moves: 1 = Rock, 2 = Paper, 3 = Scissors\n        if (player1Move == player2Move) {\n            return address(0); // Draw\n        }\n        if ((player1Move == 1 && player2Move == 3) ||\n            (player1Move == 2 && player2Move == 1) ||\n            (player1Move == 3 && player2Move == 2)) {\n            return player1;\n        } else {\n            return player2;\n        }\n    }\n\n    function getGameState() external view returns (GameState) {\n        return gameState;\n    }\n\n    function getPlayerMoves() external view inState(GameState.Finished) returns (uint, uint) {\n        return (player1Move, player2Move);\n    }\n}\n",
  "sourcePath": "/Users/vladgud/institute/ZeroKnowledgeRPS/contracts/ZeroKnowledgeRockPaperScissors.sol",
  "compiler": {
    "name": "solc",
    "version": "0.8.21+commit.d9974bed.Emscripten.clang"
  },
  "schemaVersion": "3.4.16",
  "updatedAt": "2024-12-22T13:53:02.699Z",
  "devdoc": {
    "kind": "dev",
    "methods": {},
    "version": 1
  },
  "userdoc": {
    "kind": "user",
    "methods": {},
    "version": 1
  }
}